{
  "contractName": "ERC721Identifier",
  "abi": [
    {
      "inputs": [
        {
          "internalType": "string",
          "name": "name_",
          "type": "string"
        },
        {
          "internalType": "string",
          "name": "symbol_",
          "type": "string"
        }
      ],
      "stateMutability": "nonpayable",
      "type": "constructor"
    },
    {
      "anonymous": false,
      "inputs": [
        {
          "indexed": true,
          "internalType": "address",
          "name": "owner",
          "type": "address"
        },
        {
          "indexed": true,
          "internalType": "address",
          "name": "approved",
          "type": "address"
        },
        {
          "indexed": true,
          "internalType": "uint256",
          "name": "tokenId",
          "type": "uint256"
        }
      ],
      "name": "Approval",
      "type": "event"
    },
    {
      "inputs": [
        {
          "internalType": "bytes4",
          "name": "interfaceId",
          "type": "bytes4"
        }
      ],
      "name": "supportsInterface",
      "outputs": [
        {
          "internalType": "bool",
          "name": "",
          "type": "bool"
        }
      ],
      "stateMutability": "view",
      "type": "function"
    },
    {
      "inputs": [
        {
          "internalType": "uint256",
          "name": "tokenId",
          "type": "uint256"
        }
      ],
      "name": "ownerOf",
      "outputs": [
        {
          "internalType": "address",
          "name": "",
          "type": "address"
        }
      ],
      "stateMutability": "view",
      "type": "function"
    },
    {
      "inputs": [],
      "name": "name",
      "outputs": [
        {
          "internalType": "string",
          "name": "",
          "type": "string"
        }
      ],
      "stateMutability": "view",
      "type": "function"
    },
    {
      "inputs": [],
      "name": "symbol",
      "outputs": [
        {
          "internalType": "string",
          "name": "",
          "type": "string"
        }
      ],
      "stateMutability": "view",
      "type": "function"
    },
    {
      "inputs": [
        {
          "internalType": "address",
          "name": "to",
          "type": "address"
        },
        {
          "internalType": "uint256",
          "name": "tokenId",
          "type": "uint256"
        }
      ],
      "name": "approve",
      "outputs": [],
      "stateMutability": "nonpayable",
      "type": "function"
    },
    {
      "inputs": [
        {
          "internalType": "uint256",
          "name": "tokenId",
          "type": "uint256"
        }
      ],
      "name": "getApproved",
      "outputs": [
        {
          "internalType": "address",
          "name": "",
          "type": "address"
        }
      ],
      "stateMutability": "view",
      "type": "function"
    }
  ],
  "bytecode": "0x60806040523480156200001157600080fd5b5060405162000fa838038062000fa8833981810160405281019062000037919062000193565b81600090805190602001906200004f92919062000071565b5080600190805190602001906200006892919062000071565b50505062000376565b8280546200007f906200029b565b90600052602060002090601f016020900481019282620000a35760008555620000ef565b82601f10620000be57805160ff1916838001178555620000ef565b82800160010185558215620000ef579182015b82811115620000ee578251825591602001919060010190620000d1565b5b509050620000fe919062000102565b5090565b5b808211156200011d57600081600090555060010162000103565b5090565b60006200013862000132846200022f565b62000206565b9050828152602081018484840111156200015157600080fd5b6200015e84828562000265565b509392505050565b600082601f8301126200017857600080fd5b81516200018a84826020860162000121565b91505092915050565b60008060408385031215620001a757600080fd5b600083015167ffffffffffffffff811115620001c257600080fd5b620001d08582860162000166565b925050602083015167ffffffffffffffff811115620001ee57600080fd5b620001fc8582860162000166565b9150509250929050565b60006200021262000225565b9050620002208282620002d1565b919050565b6000604051905090565b600067ffffffffffffffff8211156200024d576200024c62000336565b5b620002588262000365565b9050602081019050919050565b60005b838110156200028557808201518184015260208101905062000268565b8381111562000295576000848401525b50505050565b60006002820490506001821680620002b457607f821691505b60208210811415620002cb57620002ca62000307565b5b50919050565b620002dc8262000365565b810181811067ffffffffffffffff82111715620002fe57620002fd62000336565b5b80604052505050565b7f4e487b7100000000000000000000000000000000000000000000000000000000600052602260045260246000fd5b7f4e487b7100000000000000000000000000000000000000000000000000000000600052604160045260246000fd5b6000601f19601f8301169050919050565b610c2280620003866000396000f3fe608060405234801561001057600080fd5b50600436106100625760003560e01c806301ffc9a71461006757806306fdde0314610097578063081812fc146100b5578063095ea7b3146100e55780636352211e1461010157806395d89b4114610131575b600080fd5b610081600480360381019061007c9190610729565b61014f565b60405161008e9190610879565b60405180910390f35b61009f6101c9565b6040516100ac9190610894565b60405180910390f35b6100cf60048036038101906100ca9190610752565b61025b565b6040516100dc919061085e565b60405180910390f35b6100ff60048036038101906100fa91906106ed565b6102a1565b005b61011b60048036038101906101169190610752565b6103a1565b604051610128919061085e565b60405180910390f35b610139610428565b6040516101469190610894565b60405180910390f35b60007f62149451000000000000000000000000000000000000000000000000000000007bffffffffffffffffffffffffffffffffffffffffffffffffffffffff1916827bffffffffffffffffffffffffffffffffffffffffffffffffffffffff191614806101c257506101c1826104ba565b5b9050919050565b6060600080546101d8906109f9565b80601f0160208091040260200160405190810160405280929190818152602001828054610204906109f9565b80156102515780601f1061022657610100808354040283529160200191610251565b820191906000526020600020905b81548152906001019060200180831161023457829003601f168201915b5050505050905090565b600061026682610524565b6003600083815260200190815260200160002060009054906101000a900473ffffffffffffffffffffffffffffffffffffffff169050919050565b60006102ac826103a1565b90508073ffffffffffffffffffffffffffffffffffffffff168373ffffffffffffffffffffffffffffffffffffffff16141561031d576040517f08c379a000000000000000000000000000000000000000000000000000000000815260040161031490610916565b60405180910390fd5b8073ffffffffffffffffffffffffffffffffffffffff1661033c61056f565b73ffffffffffffffffffffffffffffffffffffffff1614610392576040517f08c379a0000000000000000000000000000000000000000000000000000000008152600401610389906108f6565b60405180910390fd5b61039c8383610577565b505050565b6000806103ad83610630565b9050600073ffffffffffffffffffffffffffffffffffffffff168173ffffffffffffffffffffffffffffffffffffffff16141561041f576040517f08c379a0000000000000000000000000000000000000000000000000000000008152600401610416906108b6565b60405180910390fd5b80915050919050565b606060018054610437906109f9565b80601f0160208091040260200160405190810160405280929190818152602001828054610463906109f9565b80156104b05780601f10610485576101008083540402835291602001916104b0565b820191906000526020600020905b81548152906001019060200180831161049357829003601f168201915b5050505050905090565b60007f01ffc9a7000000000000000000000000000000000000000000000000000000007bffffffffffffffffffffffffffffffffffffffffffffffffffffffff1916827bffffffffffffffffffffffffffffffffffffffffffffffffffffffff1916149050919050565b61052d8161066d565b61056c576040517f08c379a0000000000000000000000000000000000000000000000000000000008152600401610563906108d6565b60405180910390fd5b50565b600033905090565b816003600083815260200190815260200160002060006101000a81548173ffffffffffffffffffffffffffffffffffffffff021916908373ffffffffffffffffffffffffffffffffffffffff160217905550808273ffffffffffffffffffffffffffffffffffffffff166105ea836103a1565b73ffffffffffffffffffffffffffffffffffffffff167f8c5be1e5ebec7d5bd14f71427d1e84f3dd0314c0f7b2291e5b200ac8c7c3b92560405160405180910390a45050565b60006002600083815260200190815260200160002060009054906101000a900473ffffffffffffffffffffffffffffffffffffffff169050919050565b60008073ffffffffffffffffffffffffffffffffffffffff1661068f83610630565b73ffffffffffffffffffffffffffffffffffffffff1614159050919050565b6000813590506106bd81610ba7565b92915050565b6000813590506106d281610bbe565b92915050565b6000813590506106e781610bd5565b92915050565b6000806040838503121561070057600080fd5b600061070e858286016106ae565b925050602061071f858286016106d8565b9150509250929050565b60006020828403121561073b57600080fd5b6000610749848285016106c3565b91505092915050565b60006020828403121561076457600080fd5b6000610772848285016106d8565b91505092915050565b61078481610952565b82525050565b61079381610964565b82525050565b60006107a482610936565b6107ae8185610941565b93506107be8185602086016109c6565b6107c781610a5a565b840191505092915050565b60006107df602483610941565b91506107ea82610a6b565b604082019050919050565b6000610802602283610941565b915061080d82610aba565b604082019050919050565b6000610825603383610941565b915061083082610b09565b604082019050919050565b6000610848602b83610941565b915061085382610b58565b604082019050919050565b6000602082019050610873600083018461077b565b92915050565b600060208201905061088e600083018461078a565b92915050565b600060208201905081810360008301526108ae8184610799565b905092915050565b600060208201905081810360008301526108cf816107d2565b9050919050565b600060208201905081810360008301526108ef816107f5565b9050919050565b6000602082019050818103600083015261090f81610818565b9050919050565b6000602082019050818103600083015261092f8161083b565b9050919050565b600081519050919050565b600082825260208201905092915050565b600061095d8261099c565b9050919050565b60008115159050919050565b60007fffffffff0000000000000000000000000000000000000000000000000000000082169050919050565b600073ffffffffffffffffffffffffffffffffffffffff82169050919050565b6000819050919050565b60005b838110156109e45780820151818401526020810190506109c9565b838111156109f3576000848401525b50505050565b60006002820490506001821680610a1157607f821691505b60208210811415610a2557610a24610a2b565b5b50919050565b7f4e487b7100000000000000000000000000000000000000000000000000000000600052602260045260246000fd5b6000601f19601f8301169050919050565b7f4552433732314964656e7469666965723a204e6f6e206578697374656e74207460008201527f6f6b656e00000000000000000000000000000000000000000000000000000000602082015250565b7f4552433732314964656e7469666965723a20696e76616c696420746f6b656e2060008201527f4944000000000000000000000000000000000000000000000000000000000000602082015250565b7f4552433732314964656e7469666965723a20617070726f76652063616c6c657260008201527f206973206e6f7420746f6b656e206f776e657200000000000000000000000000602082015250565b7f4552433732314964656e7469666965723a20617070726f76616c20746f20637560008201527f7272656e74206f776e6572000000000000000000000000000000000000000000602082015250565b610bb081610952565b8114610bbb57600080fd5b50565b610bc781610970565b8114610bd257600080fd5b50565b610bde816109bc565b8114610be957600080fd5b5056fea2646970667358221220ed3e47735f281201d21a72526f863c3935ca84618e546223d9103f5c9318830964736f6c63430008010033",
  "immutableReferences": {},
  "source": "// SPDX-License-Identifier: MIT\n\npragma solidity ^0.8.1;\nimport \"./IERC721Identifier.sol\";\nimport \"@openzeppelin/contracts/utils/Context.sol\";\nimport \"@openzeppelin/contracts/utils/Strings.sol\";\nimport \"@openzeppelin/contracts/utils/Address.sol\";\nimport \"@openzeppelin/contracts/utils/introspection/IERC165.sol\";\nimport \"@openzeppelin/contracts/utils/introspection/ERC165.sol\";\n\ncontract ERC721Identifier is Context, ERC165, IERC721Identifier {\n    using Address for address;\n    using Strings for uint256;\n\n    // Token name\n    string private _name;\n\n    // Token symbol\n    string private _symbol;\n\n    // Mapping from token ID to owner address\n    mapping(uint256 => address) private _owners;\n\n    // Mapping from token ID to approved address\n    mapping(uint256 => address) private _tokenApprovals;\n\n    /**\n     * @dev Initializes the contract by setting a `name` and a `symbol` to the token collection.\n     */\n    constructor(string memory name_, string memory symbol_) {\n        _name = name_;\n        _symbol = symbol_;\n    }\n\n    /**\n     * @dev See {IERC165-supportsInterface}.\n     */\n    function supportsInterface(\n        bytes4 interfaceId\n    ) public view virtual override(ERC165, IERC165) returns (bool) {\n        return\n            interfaceId == type(IERC721Identifier).interfaceId ||\n            super.supportsInterface(interfaceId);\n    }\n\n    /**\n     * @dev See {IERC721-ownerOf}.\n     */\n    function ownerOf(\n        uint256 tokenId\n    ) public view virtual override returns (address) {\n        address owner = _ownerOf(tokenId);\n        if (owner == address(0)) {\n            revert(\"ERC721Identifier: Non existent token\");\n        }\n        return owner;\n    }\n\n    /**\n     * @dev Returns the value of the token name\n     */\n    function name() public view virtual returns (string memory) {\n        return _name;\n    }\n\n    /**\n     * @dev Returns the value of the token symbol\n     */\n    function symbol() public view virtual returns (string memory) {\n        return _symbol;\n    }\n\n    /**\n     * @dev See {IERC721Identifier-approve}.\n     */\n    function approve(address to, uint256 tokenId) public virtual override {\n        address owner = ERC721Identifier.ownerOf(tokenId);\n        if (to == owner) {\n            revert(\"ERC721Identifier: approval to current owner\");\n        }\n\n        if (_msgSender() != owner) {\n            revert(\"ERC721Identifier: approve caller is not token owner\");\n        }\n\n        _approve(to, tokenId);\n    }\n\n    /**\n     * @dev See {IERC721Identifier-getApproved}.\n     */\n    function getApproved(\n        uint256 tokenId\n    ) public view virtual override returns (address) {\n        _requireMinted(tokenId);\n\n        return _tokenApprovals[tokenId];\n    }\n\n    /**\n     * @dev Returns the owner of the `tokenId`. Does NOT revert if token doesn't exist\n     */\n    function _ownerOf(uint256 tokenId) internal view virtual returns (address) {\n        return _owners[tokenId];\n    }\n\n    /**\n     * @dev Returns whether `tokenId` exists.\n     *\n     * Tokens can be managed by their owner or approved accounts via {approve} or {setApprovalForAll}.\n     *\n     * Tokens start existing when they are minted (`_mint`),\n     * and stop existing when they are burned (`_burn`).\n     */\n    function _exists(uint256 tokenId) internal view virtual returns (bool) {\n        return _ownerOf(tokenId) != address(0);\n    }\n\n    /**\n     * @dev Returns whether `spender` is allowed to manage `tokenId`.\n     *\n     * Requirements:\n     *\n     * - `tokenId` must exist.\n     */\n    function _isApprovedOrOwner(\n        address spender,\n        uint256 tokenId\n    ) internal view virtual returns (bool) {\n        address owner = ERC721Identifier.ownerOf(tokenId);\n        return (spender == owner || getApproved(tokenId) == spender);\n    }\n\n    /**\n     * @dev Mints `tokenId` and transfers it to `to`.\n     *\n     * Requirements:\n     *\n     * - `tokenId` must not exist.\n     * - `to` cannot be the zero address.\n     *\n     */\n    function _mint(address to, uint256 tokenId) internal virtual {\n        require(to != address(0), \"ERC721Identifier: mint to the zero address\");\n        require(!_exists(tokenId), \"ERC721Identifier: token already minted\");\n\n        _owners[tokenId] = to;\n    }\n\n    /**\n     * @dev Destroys `tokenId`.\n     * The approval is cleared when the token is burned.\n     * This is an internal function that does not check if the sender is authorized to operate on the token.\n     *\n     * Requirements:\n     *\n     * - `tokenId` must exist.\n     *\n     */\n    function _burn(uint256 tokenId) internal virtual {\n        // Clear approvals\n        delete _tokenApprovals[tokenId];\n\n        delete _owners[tokenId];\n    }\n\n    /**\n     * @dev Approve `to` to operate on `tokenId`\n     *\n     * Emits an {Approval} event.\n     */\n    function _approve(address to, uint256 tokenId) internal virtual {\n        _tokenApprovals[tokenId] = to;\n        emit Approval(ERC721Identifier.ownerOf(tokenId), to, tokenId);\n    }\n\n    /**\n     * @dev Reverts if the `tokenId` has not been minted yet.\n     */\n    function _requireMinted(uint256 tokenId) internal view virtual {\n        require(_exists(tokenId), \"ERC721Identifier: invalid token ID\");\n    }\n}\n",
  "sourcePath": "/Users/yolii/Desktop/NFTim/contracts/ERC721Identifier/ERC721Identifier.sol",
  "compiler": {
    "name": "solc",
    "version": "0.8.1+commit.df193b15.Emscripten.clang"
  },
  "schemaVersion": "3.4.14",
  "updatedAt": "2023-09-28T22:24:18.993Z",
  "devdoc": {
    "kind": "dev",
    "methods": {
      "approve(address,uint256)": {
        "details": "See {IERC721Identifier-approve}."
      },
      "constructor": {
        "details": "Initializes the contract by setting a `name` and a `symbol` to the token collection."
      },
      "getApproved(uint256)": {
        "details": "See {IERC721Identifier-getApproved}."
      },
      "name()": {
        "details": "Returns the value of the token name"
      },
      "ownerOf(uint256)": {
        "details": "See {IERC721-ownerOf}."
      },
      "supportsInterface(bytes4)": {
        "details": "See {IERC165-supportsInterface}."
      },
      "symbol()": {
        "details": "Returns the value of the token symbol"
      }
    },
    "version": 1
  },
  "userdoc": {
    "kind": "user",
    "methods": {},
    "version": 1
  }
}