{
  "contractName": "NFTim",
  "abi": [
    {
      "inputs": [],
      "stateMutability": "nonpayable",
      "type": "constructor"
    },
    {
      "anonymous": false,
      "inputs": [
        {
          "indexed": true,
          "internalType": "address",
          "name": "owner",
          "type": "address"
        },
        {
          "indexed": true,
          "internalType": "address",
          "name": "approved",
          "type": "address"
        },
        {
          "indexed": true,
          "internalType": "uint256",
          "name": "tokenId",
          "type": "uint256"
        }
      ],
      "name": "Approval",
      "type": "event"
    },
    {
      "anonymous": false,
      "inputs": [
        {
          "indexed": true,
          "internalType": "address",
          "name": "previousOwner",
          "type": "address"
        },
        {
          "indexed": true,
          "internalType": "address",
          "name": "newOwner",
          "type": "address"
        }
      ],
      "name": "OwnershipTransferred",
      "type": "event"
    },
    {
      "inputs": [
        {
          "internalType": "address",
          "name": "",
          "type": "address"
        }
      ],
      "name": "addr_id",
      "outputs": [
        {
          "internalType": "uint256",
          "name": "",
          "type": "uint256"
        }
      ],
      "stateMutability": "view",
      "type": "function"
    },
    {
      "inputs": [
        {
          "internalType": "address",
          "name": "to",
          "type": "address"
        },
        {
          "internalType": "uint256",
          "name": "tokenId",
          "type": "uint256"
        }
      ],
      "name": "approve",
      "outputs": [],
      "stateMutability": "nonpayable",
      "type": "function"
    },
    {
      "inputs": [
        {
          "internalType": "uint256",
          "name": "tokenId",
          "type": "uint256"
        }
      ],
      "name": "getApproved",
      "outputs": [
        {
          "internalType": "address",
          "name": "",
          "type": "address"
        }
      ],
      "stateMutability": "view",
      "type": "function"
    },
    {
      "inputs": [
        {
          "internalType": "uint256",
          "name": "",
          "type": "uint256"
        }
      ],
      "name": "members",
      "outputs": [
        {
          "internalType": "string",
          "name": "name",
          "type": "string"
        },
        {
          "internalType": "string",
          "name": "surname1",
          "type": "string"
        },
        {
          "internalType": "string",
          "name": "surname2",
          "type": "string"
        },
        {
          "internalType": "uint256",
          "name": "id",
          "type": "uint256"
        },
        {
          "internalType": "address",
          "name": "addr",
          "type": "address"
        }
      ],
      "stateMutability": "view",
      "type": "function"
    },
    {
      "inputs": [],
      "name": "name",
      "outputs": [
        {
          "internalType": "string",
          "name": "",
          "type": "string"
        }
      ],
      "stateMutability": "view",
      "type": "function"
    },
    {
      "inputs": [],
      "name": "owner",
      "outputs": [
        {
          "internalType": "address",
          "name": "",
          "type": "address"
        }
      ],
      "stateMutability": "view",
      "type": "function"
    },
    {
      "inputs": [
        {
          "internalType": "uint256",
          "name": "tokenId",
          "type": "uint256"
        }
      ],
      "name": "ownerOf",
      "outputs": [
        {
          "internalType": "address",
          "name": "",
          "type": "address"
        }
      ],
      "stateMutability": "view",
      "type": "function"
    },
    {
      "inputs": [],
      "name": "renounceOwnership",
      "outputs": [],
      "stateMutability": "nonpayable",
      "type": "function"
    },
    {
      "inputs": [
        {
          "internalType": "bytes4",
          "name": "interfaceId",
          "type": "bytes4"
        }
      ],
      "name": "supportsInterface",
      "outputs": [
        {
          "internalType": "bool",
          "name": "",
          "type": "bool"
        }
      ],
      "stateMutability": "view",
      "type": "function"
    },
    {
      "inputs": [],
      "name": "symbol",
      "outputs": [
        {
          "internalType": "string",
          "name": "",
          "type": "string"
        }
      ],
      "stateMutability": "view",
      "type": "function"
    },
    {
      "inputs": [
        {
          "internalType": "address",
          "name": "newOwner",
          "type": "address"
        }
      ],
      "name": "transferOwnership",
      "outputs": [],
      "stateMutability": "nonpayable",
      "type": "function"
    },
    {
      "inputs": [
        {
          "internalType": "string",
          "name": "_name",
          "type": "string"
        },
        {
          "internalType": "string",
          "name": "_surname1",
          "type": "string"
        },
        {
          "internalType": "string",
          "name": "_surname2",
          "type": "string"
        },
        {
          "internalType": "address",
          "name": "to",
          "type": "address"
        }
      ],
      "name": "mint",
      "outputs": [],
      "stateMutability": "nonpayable",
      "type": "function"
    },
    {
      "inputs": [
        {
          "internalType": "uint256",
          "name": "tokenId",
          "type": "uint256"
        }
      ],
      "name": "burn",
      "outputs": [],
      "stateMutability": "nonpayable",
      "type": "function"
    }
  ],
  "bytecode": "0x60806040523480156200001157600080fd5b506040518060400160405280600581526020017f4e4654696d0000000000000000000000000000000000000000000000000000008152506040518060400160405280600381526020017f54494d0000000000000000000000000000000000000000000000000000000000815250816000908051906020019062000096929190620001ae565b508060019080519060200190620000af929190620001ae565b505050620000d2620000c6620000e060201b60201c565b620000e860201b60201c565b6000600581905550620002c3565b600033905090565b6000600460009054906101000a900473ffffffffffffffffffffffffffffffffffffffff16905081600460006101000a81548173ffffffffffffffffffffffffffffffffffffffff021916908373ffffffffffffffffffffffffffffffffffffffff1602179055508173ffffffffffffffffffffffffffffffffffffffff168173ffffffffffffffffffffffffffffffffffffffff167f8be0079c531659141344cd1fd0a4f28419497f9722a3daafe3b4186f6b6457e060405160405180910390a35050565b828054620001bc906200025e565b90600052602060002090601f016020900481019282620001e057600085556200022c565b82601f10620001fb57805160ff19168380011785556200022c565b828001600101855582156200022c579182015b828111156200022b5782518255916020019190600101906200020e565b5b5090506200023b91906200023f565b5090565b5b808211156200025a57600081600090555060010162000240565b5090565b600060028204905060018216806200027757607f821691505b602082108114156200028e576200028d62000294565b5b50919050565b7f4e487b7100000000000000000000000000000000000000000000000000000000600052602260045260246000fd5b611c2780620002d36000396000f3fe608060405234801561001057600080fd5b50600436106100cf5760003560e01c8063522345f01161008c578063715018a611610066578063715018a61461023a5780638da5cb5b1461024457806395d89b4114610262578063f2fde38b14610280576100cf565b8063522345f0146101a65780635daf08ca146101d65780636352211e1461020a576100cf565b806301ffc9a7146100d457806306fdde0314610104578063081812fc14610122578063095ea7b3146101525780632aedc3f91461016e57806342966c681461018a575b600080fd5b6100ee60048036038101906100e991906111f3565b61029c565b6040516100fb91906114ac565b60405180910390f35b61010c610316565b60405161011991906114c7565b60405180910390f35b61013c600480360381019061013791906112c7565b6103a8565b6040516101499190611491565b60405180910390f35b61016c600480360381019061016791906111b7565b6103ee565b005b6101886004803603810190610183919061121c565b6104ee565b005b6101a4600480360381019061019f91906112c7565b6106e4565b005b6101c060048036038101906101bb919061118e565b61076d565b6040516101cd9190611671565b60405180910390f35b6101f060048036038101906101eb91906112c7565b610785565b6040516102019594939291906114e9565b60405180910390f35b610224600480360381019061021f91906112c7565b610973565b6040516102319190611491565b60405180910390f35b6102426109fa565b005b61024c610a0e565b6040516102599190611491565b60405180910390f35b61026a610a38565b60405161027791906114c7565b60405180910390f35b61029a6004803603810190610295919061118e565b610aca565b005b60007f62149451000000000000000000000000000000000000000000000000000000007bffffffffffffffffffffffffffffffffffffffffffffffffffffffff1916827bffffffffffffffffffffffffffffffffffffffffffffffffffffffff1916148061030f575061030e82610b4e565b5b9050919050565b6060600080546103259061180a565b80601f01602080910402602001604051908101604052809291908181526020018280546103519061180a565b801561039e5780601f106103735761010080835404028352916020019161039e565b820191906000526020600020905b81548152906001019060200180831161038157829003601f168201915b5050505050905090565b60006103b382610bb8565b6003600083815260200190815260200160002060009054906101000a900473ffffffffffffffffffffffffffffffffffffffff169050919050565b60006103f982610973565b90508073ffffffffffffffffffffffffffffffffffffffff168373ffffffffffffffffffffffffffffffffffffffff16141561046a576040517f08c379a000000000000000000000000000000000000000000000000000000000815260040161046190611651565b60405180910390fd5b8073ffffffffffffffffffffffffffffffffffffffff16610489610c03565b73ffffffffffffffffffffffffffffffffffffffff16146104df576040517f08c379a00000000000000000000000000000000000000000000000000000000081526004016104d690611631565b60405180910390fd5b6104e98383610c0b565b505050565b6104f6610cc4565b6000600760008373ffffffffffffffffffffffffffffffffffffffff1673ffffffffffffffffffffffffffffffffffffffff1681526020019081526020016000205414610578576040517f08c379a000000000000000000000000000000000000000000000000000000000815260040161056f906115d1565b60405180910390fd5b600160055461058791906116fe565b600581905550600554600760008373ffffffffffffffffffffffffffffffffffffffff1673ffffffffffffffffffffffffffffffffffffffff168152602001908152602001600020819055506040518060a0016040528085815260200184815260200183815260200160055481526020018273ffffffffffffffffffffffffffffffffffffffff168152506006600060055481526020019081526020016000206000820151816000019080519060200190610643929190611004565b506020820151816001019080519060200190610660929190611004565b50604082015181600201908051906020019061067d929190611004565b506060820151816003015560808201518160040160006101000a81548173ffffffffffffffffffffffffffffffffffffffff021916908373ffffffffffffffffffffffffffffffffffffffff1602179055509050506106de81600554610d42565b50505050565b6106ec610cc4565b6006600082815260200190815260200160002060008082016000610710919061108a565b600182016000610720919061108a565b600282016000610730919061108a565b60038201600090556004820160006101000a81549073ffffffffffffffffffffffffffffffffffffffff0219169055505061076a81610e51565b50565b60076020528060005260406000206000915090505481565b60066020528060005260406000206000915090508060000180546107a89061180a565b80601f01602080910402602001604051908101604052809291908181526020018280546107d49061180a565b80156108215780601f106107f657610100808354040283529160200191610821565b820191906000526020600020905b81548152906001019060200180831161080457829003601f168201915b5050505050908060010180546108369061180a565b80601f01602080910402602001604051908101604052809291908181526020018280546108629061180a565b80156108af5780601f10610884576101008083540402835291602001916108af565b820191906000526020600020905b81548152906001019060200180831161089257829003601f168201915b5050505050908060020180546108c49061180a565b80601f01602080910402602001604051908101604052809291908181526020018280546108f09061180a565b801561093d5780601f106109125761010080835404028352916020019161093d565b820191906000526020600020905b81548152906001019060200180831161092057829003601f168201915b5050505050908060030154908060040160009054906101000a900473ffffffffffffffffffffffffffffffffffffffff16905085565b60008061097f83610ec0565b9050600073ffffffffffffffffffffffffffffffffffffffff168173ffffffffffffffffffffffffffffffffffffffff1614156109f1576040517f08c379a00000000000000000000000000000000000000000000000000000000081526004016109e890611571565b60405180910390fd5b80915050919050565b610a02610cc4565b610a0c6000610efd565b565b6000600460009054906101000a900473ffffffffffffffffffffffffffffffffffffffff16905090565b606060018054610a479061180a565b80601f0160208091040260200160405190810160405280929190818152602001828054610a739061180a565b8015610ac05780601f10610a9557610100808354040283529160200191610ac0565b820191906000526020600020905b815481529060010190602001808311610aa357829003601f168201915b5050505050905090565b610ad2610cc4565b600073ffffffffffffffffffffffffffffffffffffffff168173ffffffffffffffffffffffffffffffffffffffff161415610b42576040517f08c379a0000000000000000000000000000000000000000000000000000000008152600401610b3990611591565b60405180910390fd5b610b4b81610efd565b50565b60007f01ffc9a7000000000000000000000000000000000000000000000000000000007bffffffffffffffffffffffffffffffffffffffffffffffffffffffff1916827bffffffffffffffffffffffffffffffffffffffffffffffffffffffff1916149050919050565b610bc181610fc3565b610c00576040517f08c379a0000000000000000000000000000000000000000000000000000000008152600401610bf7906115f1565b60405180910390fd5b50565b600033905090565b816003600083815260200190815260200160002060006101000a81548173ffffffffffffffffffffffffffffffffffffffff021916908373ffffffffffffffffffffffffffffffffffffffff160217905550808273ffffffffffffffffffffffffffffffffffffffff16610c7e83610973565b73ffffffffffffffffffffffffffffffffffffffff167f8c5be1e5ebec7d5bd14f71427d1e84f3dd0314c0f7b2291e5b200ac8c7c3b92560405160405180910390a45050565b610ccc610c03565b73ffffffffffffffffffffffffffffffffffffffff16610cea610a0e565b73ffffffffffffffffffffffffffffffffffffffff1614610d40576040517f08c379a0000000000000000000000000000000000000000000000000000000008152600401610d3790611611565b60405180910390fd5b565b600073ffffffffffffffffffffffffffffffffffffffff168273ffffffffffffffffffffffffffffffffffffffff161415610db2576040517f08c379a0000000000000000000000000000000000000000000000000000000008152600401610da9906115b1565b60405180910390fd5b610dbb81610fc3565b15610dfb576040517f08c379a0000000000000000000000000000000000000000000000000000000008152600401610df290611551565b60405180910390fd5b816002600083815260200190815260200160002060006101000a81548173ffffffffffffffffffffffffffffffffffffffff021916908373ffffffffffffffffffffffffffffffffffffffff1602179055505050565b6003600082815260200190815260200160002060006101000a81549073ffffffffffffffffffffffffffffffffffffffff02191690556002600082815260200190815260200160002060006101000a81549073ffffffffffffffffffffffffffffffffffffffff021916905550565b60006002600083815260200190815260200160002060009054906101000a900473ffffffffffffffffffffffffffffffffffffffff169050919050565b6000600460009054906101000a900473ffffffffffffffffffffffffffffffffffffffff16905081600460006101000a81548173ffffffffffffffffffffffffffffffffffffffff021916908373ffffffffffffffffffffffffffffffffffffffff1602179055508173ffffffffffffffffffffffffffffffffffffffff168173ffffffffffffffffffffffffffffffffffffffff167f8be0079c531659141344cd1fd0a4f28419497f9722a3daafe3b4186f6b6457e060405160405180910390a35050565b60008073ffffffffffffffffffffffffffffffffffffffff16610fe583610ec0565b73ffffffffffffffffffffffffffffffffffffffff1614159050919050565b8280546110109061180a565b90600052602060002090601f0160209004810192826110325760008555611079565b82601f1061104b57805160ff1916838001178555611079565b82800160010185558215611079579182015b8281111561107857825182559160200191906001019061105d565b5b50905061108691906110ca565b5090565b5080546110969061180a565b6000825580601f106110a857506110c7565b601f0160209004906000526020600020908101906110c691906110ca565b5b50565b5b808211156110e35760008160009055506001016110cb565b5090565b60006110fa6110f5846116b1565b61168c565b90508281526020810184848401111561111257600080fd5b61111d8482856117c8565b509392505050565b60008135905061113481611bac565b92915050565b60008135905061114981611bc3565b92915050565b600082601f83011261116057600080fd5b81356111708482602086016110e7565b91505092915050565b60008135905061118881611bda565b92915050565b6000602082840312156111a057600080fd5b60006111ae84828501611125565b91505092915050565b600080604083850312156111ca57600080fd5b60006111d885828601611125565b92505060206111e985828601611179565b9150509250929050565b60006020828403121561120557600080fd5b60006112138482850161113a565b91505092915050565b6000806000806080858703121561123257600080fd5b600085013567ffffffffffffffff81111561124c57600080fd5b6112588782880161114f565b945050602085013567ffffffffffffffff81111561127557600080fd5b6112818782880161114f565b935050604085013567ffffffffffffffff81111561129e57600080fd5b6112aa8782880161114f565b92505060606112bb87828801611125565b91505092959194509250565b6000602082840312156112d957600080fd5b60006112e784828501611179565b91505092915050565b6112f981611754565b82525050565b61130881611766565b82525050565b6000611319826116e2565b61132381856116ed565b93506113338185602086016117d7565b61133c816118fa565b840191505092915050565b60006113546026836116ed565b915061135f8261190b565b604082019050919050565b60006113776024836116ed565b91506113828261195a565b604082019050919050565b600061139a6026836116ed565b91506113a5826119a9565b604082019050919050565b60006113bd602a836116ed565b91506113c8826119f8565b604082019050919050565b60006113e06024836116ed565b91506113eb82611a47565b604082019050919050565b60006114036022836116ed565b915061140e82611a96565b604082019050919050565b60006114266020836116ed565b915061143182611ae5565b602082019050919050565b60006114496033836116ed565b915061145482611b0e565b604082019050919050565b600061146c602b836116ed565b915061147782611b5d565b604082019050919050565b61148b816117be565b82525050565b60006020820190506114a660008301846112f0565b92915050565b60006020820190506114c160008301846112ff565b92915050565b600060208201905081810360008301526114e1818461130e565b905092915050565b600060a0820190508181036000830152611503818861130e565b90508181036020830152611517818761130e565b9050818103604083015261152b818661130e565b905061153a6060830185611482565b61154760808301846112f0565b9695505050505050565b6000602082019050818103600083015261156a81611347565b9050919050565b6000602082019050818103600083015261158a8161136a565b9050919050565b600060208201905081810360008301526115aa8161138d565b9050919050565b600060208201905081810360008301526115ca816113b0565b9050919050565b600060208201905081810360008301526115ea816113d3565b9050919050565b6000602082019050818103600083015261160a816113f6565b9050919050565b6000602082019050818103600083015261162a81611419565b9050919050565b6000602082019050818103600083015261164a8161143c565b9050919050565b6000602082019050818103600083015261166a8161145f565b9050919050565b60006020820190506116866000830184611482565b92915050565b60006116966116a7565b90506116a2828261183c565b919050565b6000604051905090565b600067ffffffffffffffff8211156116cc576116cb6118cb565b5b6116d5826118fa565b9050602081019050919050565b600081519050919050565b600082825260208201905092915050565b6000611709826117be565b9150611714836117be565b9250827fffffffffffffffffffffffffffffffffffffffffffffffffffffffffffffffff038211156117495761174861186d565b5b828201905092915050565b600061175f8261179e565b9050919050565b60008115159050919050565b60007fffffffff0000000000000000000000000000000000000000000000000000000082169050919050565b600073ffffffffffffffffffffffffffffffffffffffff82169050919050565b6000819050919050565b82818337600083830152505050565b60005b838110156117f55780820151818401526020810190506117da565b83811115611804576000848401525b50505050565b6000600282049050600182168061182257607f821691505b602082108114156118365761183561189c565b5b50919050565b611845826118fa565b810181811067ffffffffffffffff82111715611864576118636118cb565b5b80604052505050565b7f4e487b7100000000000000000000000000000000000000000000000000000000600052601160045260246000fd5b7f4e487b7100000000000000000000000000000000000000000000000000000000600052602260045260246000fd5b7f4e487b7100000000000000000000000000000000000000000000000000000000600052604160045260246000fd5b6000601f19601f8301169050919050565b7f4552433732314964656e7469666965723a20746f6b656e20616c72656164792060008201527f6d696e7465640000000000000000000000000000000000000000000000000000602082015250565b7f4552433732314964656e7469666965723a204e6f6e206578697374656e74207460008201527f6f6b656e00000000000000000000000000000000000000000000000000000000602082015250565b7f4f776e61626c653a206e6577206f776e657220697320746865207a65726f206160008201527f6464726573730000000000000000000000000000000000000000000000000000602082015250565b7f4552433732314964656e7469666965723a206d696e7420746f20746865207a6560008201527f726f206164647265737300000000000000000000000000000000000000000000602082015250565b7f54686973206164647265737320616c72656164792068617320616e206964656e60008201527f7469747900000000000000000000000000000000000000000000000000000000602082015250565b7f4552433732314964656e7469666965723a20696e76616c696420746f6b656e2060008201527f4944000000000000000000000000000000000000000000000000000000000000602082015250565b7f4f776e61626c653a2063616c6c6572206973206e6f7420746865206f776e6572600082015250565b7f4552433732314964656e7469666965723a20617070726f76652063616c6c657260008201527f206973206e6f7420746f6b656e206f776e657200000000000000000000000000602082015250565b7f4552433732314964656e7469666965723a20617070726f76616c20746f20637560008201527f7272656e74206f776e6572000000000000000000000000000000000000000000602082015250565b611bb581611754565b8114611bc057600080fd5b50565b611bcc81611772565b8114611bd757600080fd5b50565b611be3816117be565b8114611bee57600080fd5b5056fea2646970667358221220709ee748b6374bcf1618adcf46a916cc0c59a7e3d22ae6adcbe439d8b7c7620164736f6c63430008010033",
  "immutableReferences": {},
  "source": "// SPDX-License-Identifier: MIT\npragma solidity ^0.8.1;\nimport \"./ERC721Identifier/ERC721Identifier.sol\";\nimport \"@openzeppelin/contracts/access/Ownable.sol\";\nimport \"@openzeppelin/contracts/utils/Counters.sol\";\n\ncontract NFTim is ERC721Identifier, Ownable {\n    struct Data {\n        string name;\n        string surname1;\n        string surname2;\n        uint256 id;\n        address addr;\n    }\n\n    uint256 tokenCounter;\n\n    mapping(uint256 => Data) public members;\n    mapping(address => uint256) public addr_id;\n\n    constructor() ERC721Identifier(\"NFTim\", \"TIM\") {\n        tokenCounter = 0;\n    }\n\n    /**\n     * @dev Mints `tokenId` and transfers it to `to`, but only the owner of this contract is able to do it.\n     * This function calls the internal function _mint from ERC721Identifier.sol\n     */\n    function mint(\n        string memory _name,\n        string memory _surname1,\n        string memory _surname2,\n        address to\n    ) external onlyOwner {\n        require(addr_id[to] == 0, \"This address already has an identity\");\n        tokenCounter = tokenCounter + 1;\n        addr_id[to] = tokenCounter;\n        members[tokenCounter] = Data(\n            _name,\n            _surname1,\n            _surname2,\n            tokenCounter,\n            to\n        );\n        _mint(to, tokenCounter);\n    }\n\n    /**\n     * @dev Destroys `tokenId`, but only the owner of this contract is able to do it.\n     * This function calls the internal function _burn from ERC721Identifier.sol\n     */\n\n    function burn(uint256 tokenId) external onlyOwner {\n        delete members[tokenId];\n        _burn(tokenId);\n    }\n}\n",
  "sourcePath": "/Users/yolii/Desktop/NFTim/contracts/NFTim.sol",
  "compiler": {
    "name": "solc",
    "version": "0.8.1+commit.df193b15.Emscripten.clang"
  },
  "schemaVersion": "3.4.14",
  "updatedAt": "2023-09-29T10:24:39.657Z",
  "devdoc": {
    "kind": "dev",
    "methods": {
      "approve(address,uint256)": {
        "details": "See {IERC721Identifier-approve}."
      },
      "burn(uint256)": {
        "details": "Destroys `tokenId`, but only the owner of this contract is able to do it. This function calls the internal function _burn from ERC721Identifier.sol"
      },
      "getApproved(uint256)": {
        "details": "See {IERC721Identifier-getApproved}."
      },
      "mint(string,string,string,address)": {
        "details": "Mints `tokenId` and transfers it to `to`, but only the owner of this contract is able to do it. This function calls the internal function _mint from ERC721Identifier.sol"
      },
      "name()": {
        "details": "Returns the value of the token name"
      },
      "owner()": {
        "details": "Returns the address of the current owner."
      },
      "ownerOf(uint256)": {
        "details": "See {IERC721-ownerOf}."
      },
      "renounceOwnership()": {
        "details": "Leaves the contract without owner. It will not be possible to call `onlyOwner` functions. Can only be called by the current owner. NOTE: Renouncing ownership will leave the contract without an owner, thereby disabling any functionality that is only available to the owner."
      },
      "supportsInterface(bytes4)": {
        "details": "See {IERC165-supportsInterface}."
      },
      "symbol()": {
        "details": "Returns the value of the token symbol"
      },
      "transferOwnership(address)": {
        "details": "Transfers ownership of the contract to a new account (`newOwner`). Can only be called by the current owner."
      }
    },
    "version": 1
  },
  "userdoc": {
    "kind": "user",
    "methods": {},
    "version": 1
  }
}